S00F00004B45415F3132382E737265634A
S113000070F4FF1F393E0000953E0000953E00004D
S1130010953E0000953E0000953E0000953E000090
S1130020953E0000953E0000953E0000953E000080
S1130030953E0000953E0000953E0000953E000070
S1130040953E0000953E0000953E0000953E000060
S1130050953E0000953E0000953E0000953E000050
S1130060953E0000953E0000953E0000953E000040
S1130070E92400000925000035250000953E000014
S1130080953E0000953E0000953E0000953E000020
S1130090953E0000953E00005F250000953E00005F
S11300A08525000025260000953E0000953E0000B1
S11300B0953E0000953E0000953E0000953E0000F0
S1130410F0B5A1B0269C049102A93B254C550027B8
S11304200D970190140000930AE00498019A9047F4
S11304300490002800D1A3E00D98401C0D90641C8A
S11304402178002909D02529EFD107970897099722
S11304500A970B970C97002104E00D9892E008008E
S113046001210143641C20782028F8D023280CD0D3
S11304702B2804D02D2805D0302809D084E008008A
S11304800221EEE708000421EBE708000821E8E771
S113049008001021E5E70F970AE00F9A444B9A42AF
S11304A005DA93009A185200101830380F90641C23
S11304B020780200303A0A2AEFD320782E2803D07D
S11304C00020C0430E9028E0641C20782A280AD11A
S11304D000980068009A10600268001D009B186074
S11304E00E92641C19E02D2802D12D22641C00E018
S11304F000220E970CE0002A09D10E9B2C4DAB4232
S113050005DA9D00EB185B00181830380E90641C57
S113051020780300303B0A2BEDD302AD29872678DF
S1130520310000BF23A000F0ADFE002801D0641C00
S113053000E000263A202E54285C682804D1207854
S113054068280AD1622005E06C2806D120786C283E
S113055003D171203A216854641C12A806902378B0
S1130560009A02A9019800F063F8641C002807D1DE
S113057012AA02A9019800F0B3F9002800D45FE799
S11305800020C04321B0F0BD2A2884D1009802681D
S113059002601068121D009B1A600F90002804D599
S11305A042420F92080004210143641C85E70000C5
S11305B0CBCCCC0C686A6C747A4C00000B006228BB
S11305C01CD068280DD06A2803D06C2823D0712849
S11305D021D11A68D21D072082431A6003CA1A6007
S11305E07047002A19681960086803D0091D19604A
S11305F000B217E0091D196080B217E0002A1968DB
S11306001960086803D0091D196040B20AE0091D89
S11306101960C0B20AE0002A19681960086803D09A
S1130620091D1960C1177047091D19600021704721
S113063070B50C0011001E0025693000253800D16A
S113064016E11C3868D0001F022865D9133842D03F
S1130650093861D0801E16D0401E1ED0401E0228CC
S11306605AD9001F19D0401F00D17EE0401E32D05D
S1130670401E00D1C9E0C01E00D1D7E0801E2AD0A0
S1130680C01E28D0FAE06069421C62610A680A60F0
S11306901368121D0A602B54FAE001223A20205CF0
S11306A0FFF78CFF03C4083C002904DA6069411C8D
S11306B061612D210DE0208F810704D56069411C03
S11306C061612B2105E0C00721D56069411C61618E
S11306D0202129541BE000223A20205CFFF76EFF02
S11306E003C4083C3820205C000710D503CC083C28
S11306F0002901D100280AD020203043782806D1CF
S1130700606930212954401C411C61612E54606988
S11307102818E060310085E00868C01D0722904376
S113072008600CC808600CC4083C03CC083CC80F23
S113073004D06069411C61612D210DE0208F810787
S113074004D56069411C61612B2105E0C00704D513
S11307506069411C61612021295460692818E060A6
S11307603100200000F0FCF992E03B20205C0028DE
S113077004D00024E44300BF46A062E03A20205C99
S1130780622808D0682823D06A2812D06C282ED07A
S113079071280ED02BE00A680A601068121D0A60E6
S11307A0002803D10024E44340A04AE0E16A017038
S11307B06EE0086808600268001D0860002A03D122
S11307C00024E44339A03CE0E06AC11703C25FE0BF
S11307D00A680A601068121D0A60002804D1002407
S11307E0E44300BF31A02CE0E16A018050E00A68D4
S11307F00A601068121D0A60002803D10024E44333
S11308002AA01EE0E16A016042E00868086002680C
S1130810001D08600020C0430021104003C4083CB0
S1130820E5607821200000F0E5F831E00868086010
S11308300568001D0860E560002D06D10024E4432E
S113084020A000F02BFD201A70BD266B002E03D5CE
S1130850280000F047FD09E032000021280000F0E4
S113086049FD002801D0401B00E03000A0610FE0EA
S11308706069411C61612521295409E06169481CB2
S1130880606125226A54310002D0411C61612E54FA
S1130890002070BD7072696E74665F733A20256EB5
S11308A020646973616C6C6F776564007072696E43
S11308B074663A2062616420256E20617267756DEA
S11308C0656E74007072696E74665F733A2062615B
S11308D06420257320617267756D656E7400000075
S11308E0FEB506000D001700686B6969401A296A95
S11308F0401AA969401A696A401AE969401AA96A42
S1130900401A01903820285C400710D42020694602
S11309100870019800280ADD019C01236A46290019
S1130920300000F08FFC002860D1641EF5D13A003D
S11309306B692900300000F085FC002856D130276F
S1130940684607702C6A002C09DD01236A462900D9
S1130950300000F077FC002848D1641EF5D1AB6963
S1130960EA682900300000F06DFC00283ED168469A
S113097007706C6A002C09DD01236A4629003000E7
S113098000F060FC002831D1641EF5D1EB69E86801
S1130990A96942182900300000F054FC002825D130
S11309A068460770AC6A002C09DD01236A462900F9
S11309B0300000F047FC002818D1641EF5D138201F
S11309C0285C400710D5202069460870019800284B
S11309D00ADD019C01236A462900300000F032FC44
S11309E0002803D1641EF5D1002001E00020C0439B
S11309F003B0F0BDF2B586B0040025696F2901D1BA
S1130A00082707E0084620210143782901D00A2756
S1130A1000E010273C2603CC083C04AA03C26A4623
S1130A20127E642A03D06A46127E692A09D10029FB
S1130A3007DA04A803C800220023121A8B4104A871
S1130A400CC004A803C8002920D100281ED1206BA3
S1130A5000281BD1082F4ED13820205C00074AD52E
S1130A603B26302046E000290ED53821615C142253
S1130A700A40102A08D1616B6269891A226A891AAC
S1130A80081A002800DD206207B0F0BD029400952A
S1130A9004A830C8761E0196200029003A00FB17EE
S1130AA000F034FC3032D0B23A2803DB6846007ED2
S1130AB05138121800988255200029003A00FB177B
S1130AC000F024FC04000D0001D1002C05D0029894
S1130AD0C068009989198842DCD3029C009D082FC4
S1130AE009D13820205C000705D5A85D302802D044
S1130AF0761E3020A8553C20801BA061A919E16016
S1130B00216B8842AFDA081A2062208F1249014013
S1130B102187B9E7F8B50026104F04000D000092B4
S1130B2014E0C00707D532003B002000290000F084
S1130B3022FC04000D0000984010009030003900A1
S1130B4032003B0000F017FC06000F00009800285C
S1130B50E7D120002900F4BDEFFF0000000024408D
S1130B60F3B593B005AA03C802AB03C314A8007875
S1130B70202101436846017061290BD01398006B52
S1130B80002801D5062003E004D1672902D1012001
S1130B9013990863139803C84C006415641C13D19B
S1130BA00B0311D003201399886114A800786138CD
S1130BB01A2804D255497944FF31533116E0544977
S1130BC07944FF314D3111E04C006415641C13D19C
S1130BD00B0311D103201399886114A8007861389C
S1130BE01A281BD34B497944FF312B310322139824
S1130BF0C06800F083FCCCE110AB03C391A6C0CE67
S1130C0010A803C8394080256D03A9420BD20023E4
S1130C10019310AB30CB604069400EE03E4979440B
S1130C20FF310939E2E7080D884C2418019410A813
S1130C3003C8884D0D4086492943139B03C3684666
S1130C400078612813D11398C06830210170811C89
S1130C50139BD96014A90978612901D1782100E096
S1130C605821417013984069801C13994861139866
S1130C7030C826402F4005D1002E03D100206B46FA
S1130C8018817DE168460078612800D0A8E01398B7
S1130C90006B002801D5212000E0401C0090009F3B
S1130CA07F1C02A803C80022002300F055FC02D2D6
S1130CB08020000645400198001F019069460A758E
S1130CC005A8461C002F00DC69E120002900002251
S1130CD080235B0300F059FC00D960E169004A0DF0
S1130CE011001C31002A19D0002917DDB74A91429E
S1130CF006DB10052900802212061140014311E091
S1130D00544A2A400805104305000DE0D83100007C
S1130D10D8310000DC310000D431000029008022E9
S1130D201206114000240D002000290000F046FCAA
S1130D300290FF1F002F09DD00F07AFC02000B0077
S1130D402000290000F0E1FC04000D00F01D072143
S1130D50029A04E0401E13071B0F03701211002AAD
S1130D6001DD491EF6D5491E00D514E1401E0022BE
S1130D700270F8E70023040005AD2D1901E0401EC0
S1130D806D1E641E2E789E42F9D00F2B04D14B1C8D
S1130D901B5D5B1C491C0B55002C04D505AA401C8B
S1130DA00199091D0191431E11D4D41814A909787D
S1130DB025783035EEB23A2E02DB0E003A3EAD19FC
S1130DC025705B1E641E002BF2D514AB19701399A9
S1130DD0096B002900D4D0E0411E139B1963CCE0B9
S1130DE002A803C80022002300F0B6FB06D202A822
S1130DF003C880221206514002AA03C20198744912
S1130E004843744900F00EFD019007200199401AEF
S1130E10049005DD024602A803C8FFF77BFE0AE042
S1130E20424200206C49FFF775FE02000B0002A845
S1130E3003C800F051FD6A461278662A0CD1019A63
S1130E400A320AE0FFFFFFFFFFFFFF7F02FCFFFF04
S1130E500000E03FFFFF0F800622139B1B6B9A18D4
S1130E60142A00DD142230236C46237505AB5C1C68
S1130E7002E002A803C8049A002A3CDD02AB03C3C3
S1130E80049202A803C800F0ABFB0F900646083496
S1130E90042530000A2100F0C8FC0F0030000A21AC
S1130EA000F0C3FC06003037601E077030000A21D2
S1130EB000F0BBFC0F0030000A2100F0B6FC060075
S1130EC0A41E303727706D1EE3D108340498083807
S1130ED004900028CDDD0F9800F09AFB02000B006F
S1130EE002A803C800F011FC00223C4B00F043FAB6
S1130EF002AA03C2C5E705A8401C211A05A8421C82
S1130F00019802E0491E401E521C1378302BF9D080
S1130F10019068460078662802D10198401C06E0DA
S1130F2068460078652801D1012000E00020139B69
S1130F301B6B1818814200DA481E00281DD4884211
S1130F4004DA115C352901DB392300E03023040085
S1130F50511E0D1901E0401E6D1E641E2E789E4226
S1130F60F9D0392B02D1135D5B1C1355002C04D529
S1130F700A00401C0199491C0191694608810198A5
S1130F8000B20090029B1BB214A80178139800F0E1
S1130F9027F815B0F0BDC61D002F00DD95E605A9A4
S1130FA0481C331A05A8421C0098834200DC180030
S1130FB0002800D50BE7984200DBDBE64B1C1B5CEA
S1130FC0072B00DCD6E60F23D5E60000FF07000060
S1130FD097750000A08601000000F03F84D7974178
S1130FE0F6B583B006001D00346B002D02DC01252C
S1130FF0A1A004900F0020203843662803D10A9F43
S11310003FB27F1C19E0672800D081E00A9800B243
S11310100321C943884200DA7EE0A0427CDA0A9FB9
S11310203FB27F1C3820305C000702D4A54200DAAE
S11310302C0038B2241A00D50024B169F068401895
S11310403AB2002A25DC491C30220270002C03DC51
S11310503820305C000703D52E20F2685054491C18
S1131060B16138B241428C4200DA67423FB2784201
S11310707062E419AC4200DA25002DB2F5612A0051
S11310800499F068B369C01800F038FA601BB062C4
S1131090C0E0954217DA2A00049900F02FFAB069EB
S11310A04019B0613FB2791B7162002C03DC382116
S11310B0715C090705D52E21F2681154F069401CB2
S11310C0F061B462A6E0049900F018FA38B2B1698C
S11310D00918ED1B002C03DC3822B25C120703D57F
S11310E02E22F3685A54491CB16129B28C4200DAA9
S11310F025002AB204990918F068B369C01800F0F1
S1131100FDF92DB2B0694019B061601B706281E0D5
S1131110612F11D1702712E0A54204DA3821715CE5
S1131120090700D42C00641E00D50024672F01D1C8
S1131130652704E0452702E0412F00D15027B0691C
S1131140411CB161049A1278F3681A540498401C43
S11311500490002C03DC3820305C000717D5481CB1
S1131160B0612E22F3685A54002C10DD6D1E29B292
S11311708C4200DA25002AB20499F368181800F0AA
S1131180BDF92DB2B0694019B061601B7062F0689E
S1131190B169401807700A9909B2002904D42B21B7
S11311A04170801C049006E02D224270801C049043
S11311B048426946088500246D460A9800B205E055
S11311C00A2100F02FFB2970641C6D1C00B200285A
S11311D0F6DC012C09DC20203843652805D13020B9
S11311E0049908700498401C0490002C28D13020E5
S11311F0049908700498401C07E0641E6946095D60
S113120030310170401C002CF7DCF168B269891898
S1131210401AF0613820305C1421014010290DD1AE
S11312207069B1694018716A4018F1694018B16A6F
S11312304018716B884201DA081A306205B0F0BDBB
S11312400498E0E7F8B50024002B13D007000E0043
S113125014001D002178B068B847B060002807D09A
S1131260F06A401CF062641C6D1EF3D1002401E09E
S11312700024E4432000F2BD30000268531C0360E4
S11312801170704700BFC9B200E0401C02788A4266
S113129002D0002AF9D10020704703FC80B5002851
S11312A001D100BF07A006490B68002B03D02222FE
S11312B00021984701E000F070FB222002BD0000ED
S11312C068F0FF1F636F6E73747261696E742068D7
S11312D0616E646C65723A20626164206D6573733B
S11312E061676500010000E0491C0A78002AFBD10F
S11312F0081A7047C9B201E0401C521E002A03D0EC
S113130003788B42F8D1704700207047124224D0F2
S1131310994228D970B500251B4202D00C00002147
S113132009E00024012649186441944200D3A41A18
S11313307641F8D33100012601E0764109D2001844
S113134064416D41A41A9D41F7D2A4185D41B619B8
S1131350F5D3300022002B0070BD1B42D8D108B554
S1131360C046C04608BD01D19042D3D202000B0052
S1131370002100207047F0B50E005E400125ED0706
S11313802E40B446AE0ADF184C18F44208D2F74295
S11313900ED2640D01D07F0D12D100206146F0BD44
S11313A005D1F74201D87F0D05D10020C143F0BD1E
S11313B0FBD1640DF9D00020C143490549088FE0F1
S11313C0E419C902DB0229432B43DB0A460DC002A0
S11313D031438E4630B487B295B27D432E0CADB204
S11313E0140C7C43A419260C240425439CB27C438E
S11313F0A419190C7943270CC919A4B20F043C434E
S1131400090C000C97B247432E0CBE193543ADB2FC
S1131410170C4743360CBF19A6B2BF193E04354317
S1131420240C3E0C36199FB24743BF19BCB23E0C84
S113143089191F0C47437F183E043443390C704606
S113144080B297B247432E0CBE193543ADB2170C88
S11314504743360CBF19A6B2BF193E043543240CCA
S11314603E0C36199FB24743BF19BCB23E0C8919D2
S11314701F0C47437F183E043443390C77463F0C16
S113148090B278432E0C80190604ADB22E43050C9D
S1131490A0B22D18120C7A435019020C80B2240CFD
S11314A0A4189AB27A43121914042043120C89180E
S11314B01B0C7B43C91830BCEF0A394203D1B6195F
S11314C040414941641E6F12BF0DE41B0BDBFF1941
S11314D0BC4211DA240500274208AE41784161413B
S11314E066463143F0BD641C05D1401C6141CF0206
S11314F001D34908F4E750E75DE7FC03124207D043
S11315008B0706D00B78491C0370401C521EF7D879
S11315107047830706D00B78491C0370401C521E89
S1131520F9D1704770B4103A03D378C9103A78C02F
S1131530FBD2530701D318C918C001D508C908C084
S1131540D20704D30B880380891C801C002A01D590
S11315500B78037070BC704730B4012464054D00EF
S1131560EC420BD85D00EC4208D80C001C4364002C
S11315700443144304D2994200D1904230BC7047D2
S1131580FCD08B42FAD18242F8E730B401246405DE
S11315904D00EC420BD85D00EC4208D80C001C4313
S11315A064000443144304D28B4200D1824230BC11
S11315B07047FCD09942FAD19042F8E7F4464A18B1
S11315C005D200F00FF801D580174008604700F0FD
S11315D009F80121C907884200D908004042604740
S11315E04A1812D2400DC90208430121C907084311
S11315F0520D40210901521A521C06D452421F3284
S113160001D4D0407047C01770470020704770471E
S1131610010042221201D21E004207D002D4521EFF
S11316200018FCD5C10A400512058918704700004E
S11316300100EED54042F446FFF7EBFF0122D2074A
S113164011436047F0B40125ED070F005F404FD40C
S11316508B4200D1824205D98446100062468C46F2
S113166019006346DF184C18640D7F0D3AD0661CD0
S1131670760537D0E61B352E34DCDB022B43DB0A40
S11316800C0DC9022943C912202E0DDB1700203E80
S113169006D01F00F741F3405F400026012A77413E
S11316A0C01871410DD217E01700F741F2405740BE
S11316B0F3415A40B340F3405A4000268018594140
S11316C00AD3A21C52050FD0C207012F7241170082
S11316D04008CB0718434908641C24054208AF415D
S11316E070416141F0BC7047641C21050020F9E79A
S11316F06B4010E06B40ABE7F742F3D1E943F1E70D
S11317002442EFD100200021ECE7F0B40125ED07DD
S11317100F005F40EED40C00871A9C4105D2C01B19
S1131720A141D219634169406B40AE0ADF184C18DD
S1131730F442E1D2640D7F0DE2D0E61B362ED1DCFB
S1131740DB022B43DB0AA4460C0DC9022943C90A58
S1131750012E28DC04D1D6075208DF073A435B0880
S1131760EF0A76429041994114D039423BD1B619DF
S113177040414941761C394204D1761C0018494144
S11317803942FAD0B9436746B74208D9A41B2405A5
S11317902143A7E70042EAD13642E8D1A2E7E40AAE
S11317A0E10700209EE7202E0BDD203E1F00F340C2
S11317B0F7415F40012A002257417E4298419141FE
S11317C00BE01700F741F2405740F3415A40B34051
S11317D0F3405A407E42904199410A0303D2641E69
S11317E0B619404149410027641E24054208AE4110
S11317F078416141F0BC7047F446002804D4494262
S113180000F013F8404260474042002905D45FD0FD
S113181000F00BF8404249426047494200F005F8A5
S11318204942604703460B43E6D40022030A8B4235
S11318300BD203098B4219D243088B422ED2411A90
S113184000D20146524110467047FF2209023FD0A0
S113185012068B4205D3121209028B4201D31212D3
S1131860090203098B4219D300E0090AC3098B4218
S113187001D3CB01C01A524183098B4201D38B019E
S1131880C01A524143098B4201D34B01C01A524141
S113189003098B4201D30B01C01A5241C3088B4286
S11318A001D3CB00C01A524183088B4201D38B0071
S11318B0C01A524143088B4201D34B00C01A524113
S11318C0884200D3401A5241CFD201461046704795
S11318D008B5C046C04608BDF0B40E005E40012500
S11318E0ED072E40B446AE0ADF184C18F4423BD242
S11318F0F74241D2640D43D07F0D38D0E41BC902B6
S1131900DB0229432B43CF0ADB0A0600B61A9F41A8
S113191004D2641EB6197F41B6185F416812800D67
S113192024180018844222DAE80C0021B6197F41F9
S1131930B61A9F4102D2B6185F413F1C404149414B
S1131940F4D3241C21DD2405B6197F41B61A9F4126
S113195005D33743C60737430026012F7041614141
S113196066463143F0BC7047FCD1F74205D20020F3
S1131970C14349054908F3E704D00020C143F1E716
S11319807F0DFAD000206146ECE72442FAD1401CD6
S113199061410F03F6D30020E2E780B5012000F097
S11319A001F801BD2021090326311820ABBEF9E757
S11319B070B504000D0016003068012802D002281A
S11319C005D00BE0200040B27168884706E0200093
S11319D0B1680870B068401CB060FFE72868401C1C
S11319E0286070BDFFB584B000210F000498017019
S11319F0461C0698002824D0059800680190019898
S1131A00002803D1302030707F1C3FE0019800286B
S1131A103CD001980799FFF705FF039001980399BB
S1131A20079A5143401A002802D5C443313401E0D7
S1131A30040030340398019020003070761C7F1C21
S1131A40E4E70598006800900098002803D130204E
S1131A5030707F1C1AE00098002817D0009807996E
S1131A60FFF7E3FE029000980299079A5143401A47
S1131A700A2802D20500303501E005003735029806
S1131A80009028003070761C7F1CE4E7380008B012
S1131A90F0BDF8B507000E0015003C00B44206DAAC
S1131AA0009A29003020FFF783FF641CF6E7F1BD9C
S1131AB0F8B507000E0015003C00B44206DA009A9F
S1131AC029002020FFF774FF641CF6E7F1BDF3B58D
S1131AD095B0140000200090169D00202856029016
S1131AE00298002800D1E9E10298252813D0029831
S1131AF00A2805D0159A69460298FFF759FF09E0AC
S1131B00159A69460D20FFF753FF159A69460A2076
S1131B10FFF74EFFD0E1002007000020002825D168
S1131B206D1C00216956202910D0232916D02B2999
S1131B3008D02D2902D030290CD013E03900012718
S1131B400F43EBE7390002270F43E7E73900042787
S1131B500F43E3E7390008270F43DFE73900102775
S1131B600F43DBE76D1E01210800D7E70021019137
S1131B70002108910898002813D16D1C00202856D4
S1131B80029002983038092807D801980A2148435E
S1131B900299401830380190ECE76D1E012008903E
S1131BA0E8E7681C002141562E290FD10021089135
S1131BB0089900290BD1401C0021415630390929CC
S1131BC000D8F5E7401E01210891F1E7401E401CB2
S1131BD0002141564C2906D0682902D06C2901D035
S1131BE002E002E001E000E0401E451C002028560F
S1131BF002900298582872D0622800D1CCE0632861
S1131C0000D118E1642813D0692811D06E2800D1BE
S1131C1046E16F2800D1B4E0702800D1C7E07328F2
S1131C2000D112E1752800D1CCE0782857D03EE1EC
S1131C302068241D09900A23012209A90CA8FFF792
S1131C40D1FE06000CA8801907900998002803D536
S1131C502D200490761C0DE0B80703D52B200490AA
S1131C60761C07E0780703D520200490761C01E059
S1131C700020049000200590380712D5049800280D
S1131C8004D0159A69460498FFF792FE0120059046
S1131C90159B6A4601993000FFF7FBFE0198060088
S1131CA011E0F8070FD4159B6A4601993000FFF73D
S1131CB0FFFE0498002804D0159A69460498FFF79B
S1131CC077FE012005900598002807D10498002884
S1131CD004D0159A69460498FFF76AFE92E02068DA
S1131CE0241D03901023002203A90CA8FFF77AFEF9
S1131CF006000CA88019079000200590380716D517
S1131D00F8060BD5159A69463020FFF751FE159A4F
S1131D1069467820FFF74CFE01200590159B6A4622
S1131D2001993000FFF7B5FE0198060018E0F807A6
S1131D3016D4F80600D5B61C159B6A4601993000E6
S1131D40FFF7B6FEF8060BD5159A69463020FFF763
S1131D502FFE159A69467820FFF72AFE0120059088
S1131D60F8060DD5059800280AD1159A6946302041
S1131D70FFF71EFE159A69467820FFF719FEB61C78
S1131D8040E02068241D03900823002203A90CA826
S1131D90FFF728FE06001FE02068241D039002239D
S1131DA0002203A90CA8FFF71DFE060014E020681A
S1131DB0241D03901023002203A90CA8FFF712FE90
S1131DC0060009E02068241D03900A23002203A9C9
S1131DD00CA8FFF707FE06000CA880190790380727
S1131DE008D5159B6A4601993000FFF752FE019809
S1131DF0060007E0F80705D4159B6A4601993000F0
S1131E00FFF756FE07980021405600280AD0159A7D
S1131E10694607980023C056FFF7CAFD0798401E7D
S1131E200790EFE7F80705D5159B6A46019930003E
S1131E30FFF73EFE40E02068241D40B20A90159A48
S1131E4069460A98FFF7B4FD36E02068241D069021
S1131E500698002823D00698FFF744FA0600F807EE
S1131E6005D4159B6A4601993000FFF721FE0698B8
S1131E700021405600280AD0159A69460698002386
S1131E80C056FFF795FD0698401C0690EFE7F8074B
S1131E9005D5159B6A4601993000FFF709FE0BE052
S1131EA02068241D0B9000980B99086004E0159A93
S1131EB069460298FFF77CFD6D1C0EE6009817B08A
S1131EC0F0BD0EB43FB50500012000900648019016
S1131ED007AC220029006846FFF7F9FD04B0029917
S1131EE030BC04B0084700000F160000F7B504002A
S1131EF00D00BFA003C822002B00FFF73CFA060028
S1131F000F0079004908BCA20CCAFFF725FB65D273
S1131F10B64908003B001A00802109060A40024322
S1131F20002011003200FFF78DFBFFF747FB009004
S1131F3000284DD0FFF77CFB0022AB4BFFF71BFAC8
S1131F4006000F00D2A003C832003B00FFF713FACB
S1131F5002000B0020002900FFF7D7FB04000D004E
S1131F60CDA003C832003B00FFF705FA02000B00C6
S1131F7020002900FFF7C9FB04000D00C8A003C816
S1131F8032003B00FFF7F7F902000B0020002900A4
S1131F90FFF7BBFB04000D000020BC4932003B00EE
S1131FA0FFF7E9F902000B0020002900FFF7ADFB61
S1131FB004000D00D8A003C832003B00FFF7DBF992
S1131FC002000B0020002900FFF79FFB04000D0016
S1131FD0029800998907890F4018A7E06800401506
S1131FE0401C09D169004915491C02D1280300D0BD
S1131FF048E1BBA003C847E1B9A003C82040294079
S113200007D1002805D10298002800D13AE1B34D48
S113201038E130003900754B1A003E0080231B065E
S11320201E40164300223300FFF70CFB0B0002187E
S11320305B4101D1002A18D09B4A5E0D961B352EB8
S113204006DB002280231B060B4068460CC00EE012
S1132050202E03DD203EF140B14000E001D10020FC
S113206003E0012E01DBF040B0406A4603C268463B
S113207003C89BA20CCA02400B4001D1002A4DD0D8
S113208068460CC800205849FFF775F906000F0090
S11320907FA003C832003B00FFF76DF902000B007C
S11320A020002900FFF731FB04000D007AA003C8CB
S11320B032003B00FFF75FF902000B00200029000B
S11320C0FFF723FB04000D0075A003C832003B009A
S11320D0FFF751F902000B0020002900FFF715FB60
S11320E004000D000020694932003B00FFF743F96A
S11320F002000B0020002900FFF707FB04000D007D
S113210085A003C832003B00FFF735F902000B003D
S113211020002900FFF7F9FA04000D00029E68462A
S113212003C8FFF74BFA8007800F3018029069004C
S11321304908002905DA002280231B06121B8B4163
S113214000E00B000020F9218905002904DA80272A
S11321503F06061A8F413900029FFE07F60F0096CC
S11321608B4205DA002E00D186E000245B4D83E02B
S113217022002B0020002900FFF7FDF806000F00C5
S1132180009800283CD049A003C832003B00FFF768
S1132190F2F848A20CCAFFF755FA32003B00FFF7E9
S11321A0EAF846A20CCAFFF74DFA32003B00FFF7EB
S11321B0E2F844A20CCAFFF745FA32003B00FFF7ED
S11321C0DAF842A20CCAFFF73DFA32003B00FFF7EF
S11321D0D2F840A20CCAFFF735FA32003B00FFF7F1
S11321E0CAF800223D4B43E00000303E0000E03FCF
S11321F083C8C96D305FE43F0000A0FFFFFFDF41EB
S113220032003B0020002900FFF7B5F8009001914F
S113221035A003C832003B00FFF7ADF834A20CCA66
S1132220FFF710FA32003B00FFF7A5F832A20CCA00
S1132230FFF708FA32003B00FFF79DF830A20CCA02
S1132240FFF700FA32003B00FFF795F82EA20CCA04
S1132250FFF7F8F932003B00FFF78DF82CA20CCA07
S1132260FFF7F0F9009A019BFFF785F822002B0095
S1132270FFF7E8F904000D000298800702D58020DA
S1132280000645402000290003B0F0BD5C14D33C97
S113229000000050FB21B94100000060B41011405F
S11322A00000002026A6513E3304000009260A102F
S11322B039BA213E3BA861C6F97D92BE63AC309029
S11322C09F01FA3EF6FB51166CC156BFB10255553B
S11322D05555A53FAEFFFFFFFFFFDFBF0000F03FF6
S11322E0FFFFFFFFFFFFFF7FB08F2FC310D8E53D37
S11322F08F0C73A1E1E55ABE4DADE44FE31DC73E1B
S11323003EE3B519A0012ABFFAF010111111813F63
S1132310425555555555C5BF000000209A833B3B97
S113232080B50022FFF7E2FD04BD000010B572B6CF
S11323303024B848007880061AD5002000F08DFAC1
S113234004002000C0B2732807D17321002000F0DC
S11323506DFA002000F0B0FB0AE02000C0B2702843
S113236006D17021002000F061FA002000F0BCFBCF
S113237062B610BD70B572B63124A7480168012950
S113238009D1002000F069FA04002100C9B200203C
S113239000F04CFA4AE0C068012847D1002000F060
S11323A05CFA04009D4D2868002805D12100C9B2BB
S11323B0002000F03BFA0CE02000C0B25F381A2184
S11323C0FFF730FA0E0031006131C9B2002000F08D
S11323D02DFA2000C0B2622803D101209049086080
S11323E024E08F480168012906D12100C9B275296A
S11323F002D10221016019E00168022906D12100FD
S1132400C9B2702902D1032101600FE001680329D8
S11324100AD12100C9B2742906D1002101602868BB
S113242001214140296001E00021016062B670BDD4
S113243038B5B348016801220A430260B94C2568E3
S1132440E0682060A068E0606068A0606560206863
S11324500100C9B2302000F0C0FB60680100C9B2BD
S1132460312000F0BAFBA0680100C9B2322000F0AC
S1132470B4FBE0680100C9B2332000F0AEFB31BD0B
S113248038B59F48016801220A4302609D4D0CCD76
S1132490083D9DA003C8FFF7D5F803C5083D9C4C33
S11324A003CD083DFFF73CFF03C4083C5A4840688D
S11324B0002805D00CCC083C9B49002000F096FA7B
S11324C031BD80B58E48016801220A4302600120B3
S11324D000F024FD80B2020094A1002000F086FAEE
S11324E0012000F023FD01BD80B59148006800285B
S11324F002D0012803D005E0FFF718FF02E0FFF740
S113250039FFFFE701BD000038B572B63124894DAB
S11325102878800603D5012000F09FF9040028786C
S1132520000604D52100C9B2012000F07FF962B68B
S113253031BD000038B572B632247F4D287880064C
S113254003D5022000F089F904002878000604D598
S11325502100C9B2022000F069F962B631BD80B52C
S113256073480068002803D0022807D003D308E08A
S1132570FFF75EFF05E0FFF783FF02E0FFF7A1FF2F
S1132580FFE701BDF8B56348016804220A4302600D
S1132590016820220A43026000273C001C2000F04E
S11325A04BFB002801D1641CF8E75B480068A0429B
S11325B02FDA5A4E30680F280DD1376001213E20A2
S11325C000F00BFBFA20800000F0D2FC00213E203A
S11325D000F003FB02E03068401C30603D00042D35
S11325E017DA012031680200AA400A40012A00DA01
S11325F038000949C0B204226A4388500420684361
S113260008580100C9B24D48405700F0E6FA6D1C65
S1132610E5E7F1BD04A0064048F0FF1F60F0FF1F8E
S11326205CF0FF1F10B53E48016804220A430260B3
S1132630016820220A430260282000F0FDFA0028E5
S11326400AD13848016801224A400260006801004A
S1132650C9B2302000F0C1FA292000F0EDFA0028B8
S11326600AD13048416801224A4042604068010072
S1132670C9B2312000F0B1FA2A2000F0DDFA0028B6
S11326800AD12848816801224A408260806801009A
S1132690C9B2322000F0A1FA2B2000F0CDFA0028B4
S11326A00AD12048C16801224A40C260C0680100C2
S11326B0C9B2332000F091FA1D4C002020602C2078
S11326C000F0BAFA2168C0B2084320602D2000F05F
S11326D0B3FA2168C0B24000084320602E2000F005
S11326E0ABFA2168C0B28000084320602F2000F0BC
S11326F0A3FA2168C0B2C0000843206010BD0000E6
S11327000C71034030F0FF1F7B14AE47E17A843F25
S113271038F0FF1F089007402C3F000064F0FF1FB3
S113272008A0074048F0FF1F243F000025640A006A
S113273058F0FF1F04B0064004C0064020F0FF1FFD
S11327400121C206D20E91408A4A116070470121CC
S1132750C206D20E9140884A11607047F0B5040059
S11327600D00864810216943FFF75FF8210049B244
S1132770002903D0022921D019D32CE080490A680A
S113278080235B0313430B607E490A688023134351
S11327900B607D490A687D4B13400B600A687C4BD3
S11327A013400B600A687B4B13400B6013E07449C1
S11327B00A6880239B0313430B600CE070490A688A
S11327C08023DB0313430B6073490A6880239B0156
S11327D013430B60FFE77149220052B204235A43AA
S11327E08A581378E0221A4003009BB21B0ADB06C6
S11327F0DB0E1343260076B204277E438E593370D2
S11328000300260076B204277E438E59737000239A
S1132810260076B204277E438E59B3700C2326001B
S113282076B204277E438959CB70F0BD10B55B4A5C
S113283003005BB204246343D3581B791B06F6D50B
S113284003005BB204246343D3581B7903005BB2D7
S113285004246343D258D17110BD00B501004F4820
S11328600A0052B204235A43825812799206F6D5CA
S11328700A0052B204235A438058C079C0B200BD42
S113288038B504000D002878002806D029782000E7
S113289040B2FFF7CBFF6D1CF5E731BD70B5060004
S11328A00C0015002800451E002806D021783000B1
S11328B040B2FFF7BBFF641CF4E770BD10B5040021
S11328C03648210049B2042251434158C978202294
S11328D00A43210049B2042359434058C2702000DE
S11328E040B2002803D10C20FFF72AFF0EE020009D
S11328F040B2012803D10D20FFF722FF06E020009B
S113290040B2022802D10E20FFF71AFF10BD10B505
S113291004002248210049B2042251434158C97895
S1132920DF220A40210049B2042359434158CA70A6
S1132930210049B2042251434058C078C0210140CB
S1132940002916D1200040B2002803D10C20FFF743
S1132950FEFE0EE0200040B2012803D10D20FFF757
S1132960F6FE06E0200040B2022802D10E20FFF756
S1132970EEFE10BD00E100E080E100E0005A6202DA
S1132980148004400C80044004800440FF7FFFFF57
S1132990FFFCFFFFFFEFFFFF1080044024F0FF1F48
S11329A07CB504000E00150000A8801C0D490A889F
S11329B0028068460C490A880280022200A9891C08
S11329C0200040B2FFF76AFF2A003100200040B225
S11329D0FFF764FF02226946200040B2FFF75EFF62
S11329E073BD00009A120000FA1400000CB470B514
S11329F0C0B006000D0044AC22002900684600F077
S1132A00C7FA6946300040B2FFF73AFF40B0039876
S1132A1070BC03B0004700000121C206D20E9140F1
S1132A203D4A116070470121C206D20E91403B4AD3
S1132A3011607047F0B504000D00022738480168A2
S1132A403943016037480168022291430160364EE0
S1132A503648290089B2FEF7E5FE401E2100C9B2BE
S1132A601022514370502000C0B210214843301846
S1132A70806807432000C0B21021484330188760A3
S1132A8001202100C9B21022514371188968014301
S1132A902200D2B210235A43B21891602100C9B265
S1132AA0102251437118C96808432100C9B2102289
S1132AB051437118C860F0BD10B504002000C0B2C5
S1132AC0002808D01720FFF7A7FF19480168022241
S1132AD00A43026007E01620FFF79EFF15480168CD
S1132AE002220A43026010BD10B504002000C0B2E7
S1132AF0002808D01720FFF796FF0D48016802222E
S1132B009143016007E01620FFF78DFF0948016833
S1132B1002229143016010BD00E100E080E100E089
S1132B20148004400070034000710340005A6202A4
S1132B301871034008710340F8B504000D00160035
S1132B402800C0B201281AD15548210049B24911C0
S1132B50042251434158220052B2521104235A43D1
S1132B60805840690122E306DB0E9A4002434A6121
S1132B703100C9B2200040B200F02FF82CE01F2130
S1132B800122474B200040B24011042778431858D3
S1132B900090200040B2471104204743D8594769A8
S1132BA0BC460F0027401000B84067468743009892
S1132BB04761200040B240110427784318589C46CE
S1132BC023005BB25F1104235F436346DB599B69B7
S1132BD021408A4093438361F1BD30B50A00D2B2EB
S1132BE0002A14D02E4A03005BB25B110424634311
S1132BF0D3581C680123C506ED0EAB4023430400E3
S1132C0064B2641104256C431259136013E0244A1E
S1132C1003005BB25B1104246343D3581B68012493
S1132C20C506ED0EAC40A343040064B26411042550
S1132C306C431259136030BD1949020052B252114B
S1132C4004235A4389580969C006C00EC1400800CC
S1132C50C007C00F704730B5010049B24911C20620
S1132C60D20E0B00DBB2002B03D0022B0FD007D304
S1132C7013E00C4B1C680125954025431D600CE0B6
S1132C80094B1C680125954025431D6005E0074B51
S1132C901C680125954025431D6030BD00000000DF
S1132CA00CF0FF1F089004400C9004401090044066
S1132CB0FEB582B00600984801900198000D039972
S1132CC0FEF7B3FD05000024280080B2204101284E
S1132CD001DB641CF8E72000C0B2002801D0994F42
S1132CE007E001982100091DC8400399FEF79DFDE6
S1132CF007000498390089B2491C48439249FEF7F9
S1132D0094FD69464880300040B2002803D0022870
S1132D1027D012D33FE00220694608708B4801682F
S1132D2020220A4302608A4801688A4A0A400260F3
S1132D300168894A0A4002602DE002206946087051
S1132D408248016840220A43026081480168802267
S1132D50D2000A4302600168802212010A43026021
S1132D6019E00620694608707848016880220A4301
S1132D7002607A48016801600168016001680160CD
S1132D80016801600168734A0A4002600168724A7E
S1132D900A400260FFE7724D0020310049B204226C
S1132DA0514369580860310049B2042251436958BB
S1132DB06B4608229A5608235A438918C860684605
S1132DC000786A460821515600B209B2884203DAF3
S1132DD06921644800F0F6F8300040B20421484309
S1132DE028586A4608215156082251434018310098
S1132DF049B20422514369586B4608229A56082363
S1132E005A438918C96828220A43C260300040B274
S1132E10042148432858006820218843310049B2DE
S1132E200422514369580860380080B2310049B225
S1132E300422514369588860300040B20421484359
S1132E4028586A46082151560822514340186946B9
S1132E50498801610C20310049B204225143695868
S1132E60086005B0F0BD10B50400200040B200F0C9
S1132E7023F83B48210049B20422514341580968D0
S1132E80220052B204235A4382581160210049B2ED
S1132E90042251434158096818220A43210049B2C7
S1132EA00423594341580A600021220052B20423EA
S1132EB05A438058416010BD38B50400200040B228
S1132EC0002802D0012813D024E0204801682022E1
S1132ED00A4302601E4D28682349014029602020CE
S1132EE0FFF7B9FE2868802149040143296011E0F5
S1132EF01648016840220A430260154D28681B49A0
S1132F00014029602720FFF7A6FE286880210905D3
S1132F100143296031BD0000005A6202104940B2E9
S1132F20042250430858406880B2704710B400210E
S1132F300B4A03005BB204246343D258516010BCB3
S1132F4070470000FFFF00001027000014800440B9
S1132F500C800440FFFEFFFFFFFDFFFF10800440D4
S1132F6000F0FF1F503C0000FFFFFFFCFFFFFFF3DA
S1132F7000B50021814207D2044B1A00002A01D077
S1132F80521EFBE7491CF5E700BD000010270000B6
S1132F9016B582B0040001940020009003AB0A002F
S1132FA001A9074878441830FDF732FA0021019A44
S1132FB01170002801D40198001B04B010BD00BF9B
S1132FC0BBE2FFFF70B506000D002A003100074880
S1132FD0FEF777FF06490800002801D0401EFBE7F2
S1132FE00C00002CF6D0641EFBE700BF3C3D000043
S1132FF0A086010080B572B601210020FFF71AFDFA
S1133000962189010020FFF7A9FB0020FFF754FD5A
S11330100020FFF753FC62B6AF4800680028FBD0DD
S11330200020FFF761FD0020FFF771FC01BD0000E7
S113303080B572B6E12149020020FFF78FFB002022
S1133040FFF73CFC62B6A54800680128FBD00020CD
S1133050FFF75DFC01BD000080B572B6642100205D
S1133060FFF7E8FC962189010020FFF777FB002099
S1133070FFF722FD0020FFF721FC62B69748406865
S11330800128FBD00020FFF72FFD0020FFF73FFCB5
S113309001BD000080B572B664210020FFF7CAFCB0
S11330A0962189010020FFF759FB0020FFF704FD5A
S11330B00020FFF703FC62B688488068012805D128
S11330C0082287490020FFF76BFCF5E70020FFF793
S11330D00BFD0020FFF71BFC01BD000080B572B69C
S11330E0962189010020FFF739FB0020FFF7E6FB5A
S11330F062B67A48C0680128FBD00020FFF707FCBD
S113310001BD80B574480068012818D1734801686E
S1133110002902D0FFF78CFFF4E74168002902D0B0
S1133120FFF79AFFEEE78168002902D0FFF7B2FFAC
S1133130E8E7C0680028E5D0FFF7D0FFE2E701BD6B
S113314080B572B601210020FFF774FC9621890135
S11331500020FFF703FB0A23322200210020FFF79F
S1133160A7FD0120FFF77FFE0020FFF7A7FB00204B
S1133170FFF7A2FC62B6584800680228FBD0002082
S1133180FFF7B2FC0020FFF7C2FB01BD80B572B6A9
S1133190962189010020FFF7E1FA0221062000F0C0
S11331A0A5F80020FFF78AFB62B64B4800680328A5
S11331B003D00020FFF7ABFB09E0062000F0AFF8D6
S11331C00090042269460020FFF7EAFBEDE701BD09
S11331D080B572B6002201213E20FFF7ADFC62B635
S11331E03D4800680428FBD001BD000038B572B624
S11331F000252C00082C07DA00220021394800574A
S1133200FFF79AFC641CF5E72C00042C07DA002273
S1133210012135480057FFF78FFC641CF5E70022B5
S11332201C21002000F09FF82C00042C09DA002255
S11332302C4801572039C9B2012000F094F8641CCD
S1133240F3E72C00042C08DA264801572039C9B2C8
S1133250012000F04BF9641CF4E71C21002000F06D
S113326045F962B61C4C25602C20FFF7E5FC21686B
S1133270C0B2084320602D20FFF7DEFC2168C0B2F5
S11332804000084320602E20FFF7D6FC2168C0B21E
S11332908000084320602F20FFF7CEFC2168C0B2D5
S11332A0C000084320602068002806D002280AD005
S11332B006D304280DD009D30DE0FFF79BFEF2E7F7
S11332C0FFF71FFFEFE7FFF73BFFECE7FFF75EFFBA
S11332D0E9E7FFF77DFFE6E758F0FF1F48F0FF1F1F
S11332E038F0FF1F18F0FF1F20F0FF1F10B4144A1E
S11332F013688024A4051C43146001220B005BB2F4
S11333009B000C241C4014430E4B1C6000230E4CE9
S11333102360824092B20D4B1A6010BC704700B516
S1133320010000220A480B005BB2DB06DB0E0360DF
S113333003681B06FCD50748006880B200BD000086
S11333401480044008B0034004B0034018B00340A4
S113335000B0034010B003400121C206D20E9140D8
S1133360714A11607047F8B504000D0016006F49EA
S11333706F4808606F484860200040B2002830D190
S11333806D48026880235B0413430360200040B24D
S1133390042250430858806802229043220052B20B
S11333A004235A438A5890600122644B1F6810001A
S11333B0A84087431F60624B1F681000A8408743E2
S11333C01F60300040B2002805D05E480368AA4060
S11333D09343036039E05B480368AA401A430260E0
S11333E033E0200040B201282FD1534802688023E3
S11333F09B0413430360200040B204225043085846
S1133400806802229043220052B204235A438A580D
S113341090604D4B01221F681000A84087431F6035
S11334204A4B1F681000A84087431F60300040B219
S1133430002805D046480368AA409343036004E08B
S113344043480368AA401A430260300040B200288F
S11334500FD0200040B20422504308584268012093
S1133460A8401043220052B204235A438A585060A1
S11334700EE0200040B20422504308584068012264
S1133480AA409043220052B204235A438A585060FF
S1133490200040B204225043085802680120A8408A
S11334A01043220052B204235A438A581060294818
S11334B00268026002688023DB0213430360362043
S11334C0220052B204235A4389588860200040B233
S11334D0002803D11820FFF73FFF06E0200040B288
S11334E0012802D11920FFF737FFF1BD30B40F4A8C
S11334F00F4B13600F4B5360174B1C68202525435B
S11335001D6003005BB204246343D3581B68012489
S11335108C401C4303005BB204256B43D2581460F7
S113352030BC70470000000000E100E040F0FF1FE5
S11335300090074000A0074014800440180000F8E1
S1133540140000F808900440580000F8540000F8F3
S11335500C900440009004400890074010B504000B
S11335602000083000F0EEF8606800F07EF8314882
S11335700178FB220A40027000BF00BF2E48017888
S1133580C906FBD401784906FCD52C490A78D20631
S1133590D20E0A70017880220A43027010BD000026
S11335A010B504002000083000F0CCF8606800F08A
S11335B05CF820490878FB2202400A7080200A78CF
S11335C09206920E02430A701C490A78EF231340B4
S11335D00B7000BF00BF184A13789B089B079B0F12
S11335E0022BF8D11378DB06FCD40B78DB06DB0E58
S11335F00B7011780843107010BD000010B5040062
S11336002000083000F09EF8606800F02EF80948A9
S11336100178FB220A40027000BF00BF074801780E
S1133620C906C90E01700448017880220A43027059
S113363010BD000000400640044006400140064022
S113364010B50100604A117060490A78FE231340E6
S1133650020092B212121400E407E40F1C430C702F
S1133660374909784906FBD510BD00B5010020296A
S113367032D0FA221201914216D0FA22520191421A
S11336800AD0534A914207D0FA229201914213D0B0
S1133690504A914218D025E04F490A78C723134075
S11336A018221A430A701DE04B490A78C7231340B5
S11336B010221A430A7015E047490A78C7231340B9
S11336C020221A430A700DE043490A78C7231340A5
S11336D020221A430A7005E03F490A78C7231340A1
S11336E00B70FFE700BD10B50400207802280BD151
S11336F0207A102101432172207A20210143217272
S11337002000FFF72BFF1AE02078032807D1207A46
S1133710EF21014021722000FFF770FF0FE02078B5
S1133720052807D1207AEF21014021722000FFF7FC
S113373037FF04E023480178C906C90E017010BDA3
S11337400440064010B5002201210378DBB25B0877
S11337500B40DBB2002B02D0130002221A43037881
S11337600B40DBB2002B02D0130004221A4303786F
S1133770DBB2DB080B40DBB2002B02D013002022AB
S11337801A430378DBB21B090B40DBB2002B02D0D7
S1133790130010221A430378DBB29B080B40DBB200
S11337A0002B02D0130080221A430C4B1A700478A9
S11337B0E4B264092140C9B2002902D01978C907CA
S11337C0FCD510BD014006400240064003400640BF
S11337D010270000204E0000004006400050064024
S11337E080B588B003A8142100F0C6F868460C21FF
S11337F000F0C2F800205049088050490880582041
S1133800FFF71EFF039880214901014303910698A5
S11338104B490143069103A800F0C8F86846017AB1
S113382001220A430272017A04220A430272FA2133
S113383089010191022101706846FFF754FFC046D7
S1133840C04600F002F809B000BDFEB50024FF2018
S113385000F00FF90500002000F010F969468871A6
S1133860012000F00BF969464871022000F006F9C6
S113387069460871032000F001F907003148FEF79A
S113388020FB3800C0B2009068460379684642794C
S1133890684681792C48FEF714FB822630002840C4
S11338A0822804D1012004002848FEF70AFB2E4098
S11338B0022E04D1012004002548FEF702FBA806CD
S11338C004D5012004002348FEF7FBFA680604D55A
S11338D0012004002048FEF7F4FA680704D501200B
S11338E004001E48FEF7EDFAA80404D501200400E4
S11338F01B48FEF7E6FA280504D501200400194800
S1133900FEF7DFFA680504D5012004001648FEF727
S1133910D8FAA80504D5012004001448FEF7D1FA0A
S11339202000C0B2012802D01148FEF7CAFA11489B
S1133930FEF7C7FAF7BD00006CF0FF1F6EF0FF1F23
S1133940003070001C3E0000C43B0000AC3E000090
S1133950F43E0000D43E0000003F0000643E00003E
S1133960603D0000A83D0000C83D0000C03E0000CE
S11339700C3F00007C3E00000022FFE713001039DA
S113398006D330B41400150010393CC0FCD230BC4E
S1133990490700D30CC000D504C0890002D30280BB
S11339A0801C002900D5027070470000F0B50E2479
S11339B000252900C02292010369012607683F0BF4
S11339C03740002F01D00225AC430568ED0A35408D
S11339D0002D01D00425AC430568AD0A3540002D07
S11339E001D00825AC4305683540002D03D02500DF
S11339F0802424032C430568AD083540002D03D0F2
S1133A0025008024E4012C430568ED083540002D91
S1133A1003D02500802464012C4305686D083540DB
S1133A20002D03D02500802424022C4305686D0A50
S1133A302E40002E02D0250020242C4345792E044C
S1133A40E025ED0235402543047924062C4305681E
S1133A50AD092E05E025ED03354025438468C6688D
S1133A600F4F3D600F4F3C600F4F3E600F4F3B6068
S1133A70F0BD01000E4800680840704781B00100A5
S1133A8068460C4A13680360094800686A460B00DC
S1133A905BB2D25CD0400007000FC0B201B07047E7
S1133AA0048004400C8004401480044024800440BA
S1133AB000800440303F0000FEB51E481E4981428C
S1133AC00BD000221400302C07D204226243825807
S1133AD004236343CA50641CF5E700F03FF8174918
S1133AE01748184A0192019A151A2A00551E002AED
S1133AF004D002780A70401C491CF6E7124A134BA2
S1133B000093009B9B1A1C00631E002C03D000240E
S1133B101470521CF7E70E4C0E4D0F4E771B3B00F2
S1133B205F1E002B04D02B7823706D1C641CF6E7F9
S1133B30F7BD00BF0000000000F0FF1F00F0FF1FF2
S1133B40E43C0000143D000030F0FF1F70F0FF1F44
S1133B5000000000000000000000000001490860AF
S1133B607047000008ED00E0F8B40F4806780F49EC
S1133B700A786B461A700E4A13880E4C258877060D
S1133B807F0E20263E436F467E700B4E0B4F3780D0
S1133B900B4F37806E4636780E7013802580694649
S1133BA049780170F1BC70470020054001200540B0
S1133BB0042005400620054002200540C5200000E1
S1133BC0D92800000A2046616D696C6C792049444B
S1133BD0203D20307825782C205375622D66616D48
S1133BE0696C79204944203D20307825782C205276
S1133BF065766973696F6E204944203D20307825CD
S1133C00782C2050696E204944203D203078257856
S1133C10200A000070B40123002413E00168001D91
S1133C20194202D04D466D1E49190C60091D121F20
S1133C30042AFAD20D00960701D50C80AD1C1A4057
S1133C4000D02C700268001D002AE7D170BC7047B8
S1133C50443A5CE88BB1E99B84E697B6E588BB5CA3
S1133C606B6561746573745C436F64655C737263E4
S1133C705C647269766572735C66746D5C66746D9F
S1133C802E6300000A2A2A2A2A64656661756C7408
S1133C905F69737220656E7465726564206F6E204F
S1133CA0766563746F722025642A2A2A2A2A0D0AEB
S1133CB00A00000030B401220168001D00290FD061
S1133CC00368C31844680830144202D04D466D1E80
S1133CD064191D6825601B1D241D091FECD0F8E71D
S1133CE030BC7047008003400090034000A00340B4
S1133CF000F00F4040F00F4080F00F4028292A2B9D
S1133D002C2D2E2F3031323300A0064000B0064057
S1133D1000C0064010B5074979441831064C7C446C
S1133D20163404E0081D0A68891888470100A14276
S1133D30F8D110BD5000000070000000417373659D
S1133D407274696F6E206661696C656420696E20A7
S1133D502573206174206C696E652025640A000057
S1133D602053746F70204D6F64652041636B6E6FD8
S1133D70776C65646765204572726F722052657353
S1133D8065740A0091FEFFFF4000000030F0FF1F41
S1133D900000000021FFFFFF3000000048FFFFFF8C
S1133DA000F0FF1F00000000204D444D2D41502025
S1133DB053797374656D205265736574205265710F
S1133DC0756573740A00000020536F66747761721E
S1133DD0652F53595352455345545245512052650A
S1133DE07365740A000000000120C046002801D059
S1133DF0FFF790FF00BF00BF002000BF00BFFFF728
S1133E00F5F900F000F880B500F002F801BD0000FB
S1133E1007463846FDF7C6FDFBE700000A0A2D2DCC
S1133E2053797374656D204C6F6720424547494E42
S1133E30532D2D0A0A000000002000210022002337
S1133E40002400250026002762B600F001F8FEE7F2
S1133E5080B5FFF789FEFFF72FFEFFF7C1FCFFF7E0
S1133E60C5F9FEE7204C6F7373206F6620436C6FB7
S1133E70636B2052657365740A0000000A2D2D538C
S1133E80797374656D204C6F6720454E44532D2D16
S1133E900A0A000080B5034801680348FEF711F8D8
S1133EA001BD000004ED00E0843C000020506F7769
S1133EB06572204F6E2052657365740A000000001D
S1133EC020436F7265206C6F636B7570205265734D
S1133ED065740A002057444F472052657365740A7D
S1133EE0000000006E616E004E414E00696E660077
S1133EF0494E4600204C56442052657365740A00AE
S1133F002050696E2052657365740A00535744202B
S1133F1052657365740A000000BF00BF00BF00BF94
S1133F20FFF762FF252E366C660A0000A0860100AA
S1073F301C18141031
S9033F19A4
