S00F00004B45415F3132382E737265634A
S113000030F4FF1F3D2D0000992D0000992D0000B4
S1130010992D0000992D0000992D0000992D0000C4
S1130020992D0000992D0000992D0000992D0000B4
S1130030992D0000992D0000992D0000992D0000A4
S1130040992D0000992D0000992D0000992D000094
S1130050992D0000992D0000992D0000992D000084
S1130060992D0000992D0000992D0000992D000074
S1130070DD2600000927000035270000992D000027
S1130080992D0000992D0000992D0000992D000054
S1130090992D0000992D00005F270000992D000084
S11300A07F270000A7270000992D0000992D00004C
S11300B0992D0000992D0000992D0000992D000024
S1130410F0B5A1B0269C049102A93B254C550027B8
S11304200D970190140000930AE00498019A9047F4
S11304300490002800D1A3E00D98401C0D90641C8A
S11304402178002909D02529EFD107970897099722
S11304500A970B970C97002104E00D9892E008008E
S113046001210143641C20782028F8D023280CD0D3
S11304702B2804D02D2805D0302809D084E008008A
S11304800221EEE708000421EBE708000821E8E771
S113049008001021E5E70F970AE00F9A444B9A42AF
S11304A005DA93009A185200101830380F90641C23
S11304B020780200303A0A2AEFD320782E2803D07D
S11304C00020C0430E9028E0641C20782A280AD11A
S11304D000980068009A10600268001D009B186074
S11304E00E92641C19E02D2802D12D22641C00E018
S11304F000220E970CE0002A09D10E9B2C4DAB4232
S113050005DA9D00EB185B00181830380E90641C57
S113051020780300303B0A2BEDD302AD29872678DF
S1130520310000BF23A000F0ADFE002801D0641C00
S113053000E000263A202E54285C682804D1207854
S113054068280AD1622005E06C2806D120786C283E
S113055003D171203A216854641C12A806902378B0
S1130560009A02A9019800F063F8641C002807D1DE
S113057012AA02A9019800F0B3F9002800D45FE799
S11305800020C04321B0F0BD2A2884D1009802681D
S113059002601068121D009B1A600F90002804D599
S11305A042420F92080004210143641C85E70000C5
S11305B0CBCCCC0C686A6C747A4C00000B006228BB
S11305C01CD068280DD06A2803D06C2823D0712849
S11305D021D11A68D21D072082431A6003CA1A6007
S11305E07047002A19681960086803D0091D19604A
S11305F000B217E0091D196080B217E0002A1968DB
S11306001960086803D0091D196040B20AE0091D89
S11306101960C0B20AE0002A19681960086803D09A
S1130620091D1960C1177047091D19600021704721
S113063070B50C0011001E0025693000253800D16A
S113064016E11C3868D0001F022865D9133842D03F
S1130650093861D0801E16D0401E1ED0401E0228CC
S11306605AD9001F19D0401F00D17EE0401E32D05D
S1130670401E00D1C9E0C01E00D1D7E0801E2AD0A0
S1130680C01E28D0FAE06069421C62610A680A60F0
S11306901368121D0A602B54FAE001223A20205CF0
S11306A0FFF78CFF03C4083C002904DA6069411C8D
S11306B061612D210DE0208F810704D56069411C03
S11306C061612B2105E0C00721D56069411C61618E
S11306D0202129541BE000223A20205CFFF76EFF02
S11306E003C4083C3820205C000710D503CC083C28
S11306F0002901D100280AD020203043782806D1CF
S1130700606930212954401C411C61612E54606988
S11307102818E060310085E00868C01D0722904376
S113072008600CC808600CC4083C03CC083CC80F23
S113073004D06069411C61612D210DE0208F810787
S113074004D56069411C61612B2105E0C00704D513
S11307506069411C61612021295460692818E060A6
S11307603100200000F0FCF992E03B20205C0028DE
S113077004D00024E44300BF46A062E03A20205C99
S1130780622808D0682823D06A2812D06C282ED07A
S113079071280ED02BE00A680A601068121D0A60E6
S11307A0002803D10024E44340A04AE0E16A017038
S11307B06EE0086808600268001D0860002A03D122
S11307C00024E44339A03CE0E06AC11703C25FE0BF
S11307D00A680A601068121D0A60002804D1002407
S11307E0E44300BF31A02CE0E16A018050E00A68D4
S11307F00A601068121D0A60002803D10024E44333
S11308002AA01EE0E16A016042E00868086002680C
S1130810001D08600020C0430021104003C4083CB0
S1130820E5607821200000F0E5F831E00868086010
S11308300568001D0860E560002D06D10024E4432E
S113084020A000F02BFD201A70BD266B002E03D5CE
S1130850280000F047FD09E032000021280000F0E4
S113086049FD002801D0401B00E03000A0610FE0EA
S11308706069411C61612521295409E06169481CB2
S1130880606125226A54310002D0411C61612E54FA
S1130890002070BD7072696E74665F733A20256EB5
S11308A020646973616C6C6F776564007072696E43
S11308B074663A2062616420256E20617267756DEA
S11308C0656E74007072696E74665F733A2062615B
S11308D06420257320617267756D656E7400000075
S11308E0FEB506000D001700686B6969401A296A95
S11308F0401AA969401A696A401AE969401AA96A42
S1130900401A01903820285C400710D42020694602
S11309100870019800280ADD019C01236A46290019
S1130920300000F08FFC002860D1641EF5D13A003D
S11309306B692900300000F085FC002856D130276F
S1130940684607702C6A002C09DD01236A462900D9
S1130950300000F077FC002848D1641EF5D1AB6963
S1130960EA682900300000F06DFC00283ED168469A
S113097007706C6A002C09DD01236A4629003000E7
S113098000F060FC002831D1641EF5D1EB69E86801
S1130990A96942182900300000F054FC002825D130
S11309A068460770AC6A002C09DD01236A462900F9
S11309B0300000F047FC002818D1641EF5D138201F
S11309C0285C400710D5202069460870019800284B
S11309D00ADD019C01236A462900300000F032FC44
S11309E0002803D1641EF5D1002001E00020C0439B
S11309F003B0F0BDF2B586B0040025696F2901D1BA
S1130A00082707E0084620210143782901D00A2756
S1130A1000E010273C2603CC083C04AA03C26A4623
S1130A20127E642A03D06A46127E692A09D10029FB
S1130A3007DA04A803C800220023121A8B4104A871
S1130A400CC004A803C8002920D100281ED1206BA3
S1130A5000281BD1082F4ED13820205C00074AD52E
S1130A603B26302046E000290ED53821615C142253
S1130A700A40102A08D1616B6269891A226A891AAC
S1130A80081A002800DD206207B0F0BD029400952A
S1130A9004A830C8761E0196200029003A00FB17EE
S1130AA000F034FC3032D0B23A2803DB6846007ED2
S1130AB05138121800988255200029003A00FB177B
S1130AC000F024FC04000D0001D1002C05D0029894
S1130AD0C068009989198842DCD3029C009D082FC4
S1130AE009D13820205C000705D5A85D302802D044
S1130AF0761E3020A8553C20801BA061A919E16016
S1130B00216B8842AFDA081A2062208F1249014013
S1130B102187B9E7F8B50026104F04000D000092B4
S1130B2014E0C00707D532003B002000290000F084
S1130B3022FC04000D0000984010009030003900A1
S1130B4032003B0000F017FC06000F00009800285C
S1130B50E7D120002900F4BDEFFF0000000024408D
S1130B60F3B593B005AA03C802AB03C314A8007875
S1130B70202101436846017061290BD01398006B52
S1130B80002801D5062003E004D1672902D1012001
S1130B9013990863139803C84C006415641C13D19B
S1130BA00B0311D003201399886114A800786138CD
S1130BB01A2804D255497944FF31533116E0544977
S1130BC07944FF314D3111E04C006415641C13D19C
S1130BD00B0311D103201399886114A8007861389C
S1130BE01A281BD34B497944FF312B310322139824
S1130BF0C06800F083FCCCE110AB03C391A6C0CE67
S1130C0010A803C8394080256D03A9420BD20023E4
S1130C10019310AB30CB604069400EE03E4979440B
S1130C20FF310939E2E7080D884C2418019410A813
S1130C3003C8884D0D4086492943139B03C3684666
S1130C400078612813D11398C06830210170811C89
S1130C50139BD96014A90978612901D1782100E096
S1130C605821417013984069801C13994861139866
S1130C7030C826402F4005D1002E03D100206B46FA
S1130C8018817DE168460078612800D0A8E01398B7
S1130C90006B002801D5212000E0401C0090009F3B
S1130CA07F1C02A803C80022002300F055FC02D2D6
S1130CB08020000645400198001F019069460A758E
S1130CC005A8461C002F00DC69E120002900002251
S1130CD080235B0300F059FC00D960E169004A0DF0
S1130CE011001C31002A19D0002917DDB74A91429E
S1130CF006DB10052900802212061140014311E091
S1130D00544A2A400805104305000DE0EC20000079
S1130D10EC200000F0200000E820000029008022E0
S1130D201206114000240D002000290000F046FCAA
S1130D300290FF1F002F09DD00F07AFC02000B0077
S1130D402000290000F0DBFC04000D00F01D072149
S1130D50029A04E0401E13071B0F03701211002AAD
S1130D6001DD491EF6D5491E00D514E1401E0022BE
S1130D700270F8E70023040005AD2D1901E0401EC0
S1130D806D1E641E2E789E42F9D00F2B04D14B1C8D
S1130D901B5D5B1C491C0B55002C04D505AA401C8B
S1130DA00199091D0191431E11D4D41814A909787D
S1130DB025783035EEB23A2E02DB0E003A3EAD19FC
S1130DC025705B1E641E002BF2D514AB19701399A9
S1130DD0096B002900D4D0E0411E139B1963CCE0B9
S1130DE002A803C80022002300F0B6FB06D202A822
S1130DF003C880221206514002AA03C20198744912
S1130E004843744900F008FD019007200199401AF5
S1130E10049005DD024602A803C8FFF77BFE0AE042
S1130E20424200206C49FFF775FE02000B0002A845
S1130E3003C800F04BFD6A461278662A0CD1019A69
S1130E400A320AE0FFFFFFFFFFFFFF7F02FCFFFF04
S1130E500000E03FFFFF0F800622139B1B6B9A18D4
S1130E60142A00DD142230236C46237505AB5C1C68
S1130E7002E002A803C8049A002A3CDD02AB03C3C3
S1130E80049202A803C800F0ABFB0F900646083496
S1130E90042530000A2100F0C2FC0F0030000A21B2
S1130EA000F0BDFC06003037601E077030000A21D8
S1130EB000F0B5FC0F0030000A2100F0B0FC060081
S1130EC0A41E303727706D1EE3D108340498083807
S1130ED004900028CDDD0F9800F09AFB02000B006F
S1130EE002A803C800F00BFC00223C4B00F043FABC
S1130EF002AA03C2C5E705A8401C211A05A8421C82
S1130F00019802E0491E401E521C1378302BF9D080
S1130F10019068460078662802D10198401C06E0DA
S1130F2068460078652801D1012000E00020139B69
S1130F301B6B1818814200DA481E00281DD4884211
S1130F4004DA115C352901DB392300E03023040085
S1130F50511E0D1901E0401E6D1E641E2E789E4226
S1130F60F9D0392B02D1135D5B1C1355002C04D529
S1130F700A00401C0199491C0191694608810198A5
S1130F8000B20090029B1BB214A80178139800F0E1
S1130F9027F815B0F0BDC61D002F00DD95E605A9A4
S1130FA0481C331A05A8421C0098834200DC180030
S1130FB0002800D50BE7984200DBDBE64B1C1B5CEA
S1130FC0072B00DCD6E60F23D5E60000FF07000060
S1130FD097750000A08601000000F03F84D7974178
S1130FE0F6B583B006001D00346B002D02DC01252C
S1130FF0A1A004900F0020203843662803D10A9F43
S11310003FB27F1C19E0672800D081E00A9800B243
S11310100321C943884200DA7EE0A0427CDA0A9FB9
S11310203FB27F1C3820305C000702D4A54200DAAE
S11310302C0038B2241A00D50024B169F068401895
S11310403AB2002A25DC491C30220270002C03DC51
S11310503820305C000703D52E20F2685054491C18
S1131060B16138B241428C4200DA67423FB2784201
S11310707062E419AC4200DA25002DB2F5612A0051
S11310800499F068B369C01800F038FA601BB062C4
S1131090C0E0954217DA2A00049900F02FFAB069EB
S11310A04019B0613FB2791B7162002C03DC382116
S11310B0715C090705D52E21F2681154F069401CB2
S11310C0F061B462A6E0049900F018FA38B2B1698C
S11310D00918ED1B002C03DC3822B25C120703D57F
S11310E02E22F3685A54491CB16129B28C4200DAA9
S11310F025002AB204990918F068B369C01800F0F1
S1131100FDF92DB2B0694019B061601B706281E0D5
S1131110612F11D1702712E0A54204DA3821715CE5
S1131120090700D42C00641E00D50024672F01D1C8
S1131130652704E0452702E0412F00D15027B0691C
S1131140411CB161049A1278F3681A540498401C43
S11311500490002C03DC3820305C000717D5481CB1
S1131160B0612E22F3685A54002C10DD6D1E29B292
S11311708C4200DA25002AB20499F368181800F0AA
S1131180BDF92DB2B0694019B061601B7062F0689E
S1131190B169401807700A9909B2002904D42B21B7
S11311A04170801C049006E02D224270801C049043
S11311B048426946088500246D460A9800B205E055
S11311C00A2100F029FB2970641C6D1C00B2002860
S11311D0F6DC012C09DC20203843652805D13020B9
S11311E0049908700498401C0490002C28D13020E5
S11311F0049908700498401C07E0641E6946095D60
S113120030310170401C002CF7DCF168B269891898
S1131210401AF0613820305C1421014010290DD1AE
S11312207069B1694018716A4018F1694018B16A6F
S11312304018716B884201DA081A306205B0F0BDBB
S11312400498E0E7F8B50024002B13D007000E0043
S113125014001D002178B068B847B060002807D09A
S1131260F06A401CF062641C6D1EF3D1002401E09E
S11312700024E4432000F2BD30000268531C0360E4
S11312801170704700BFC9B200E0401C02788A4266
S113129002D0002AF9D100207047704780B5002899
S11312A001D100BF07A006490B68002B03D02222FE
S11312B00021984701E000F06AFB222002BD0000F3
S11312C028F0FF1F636F6E73747261696E74206817
S11312D0616E646C65723A20626164206D6573733B
S11312E061676500010000E0491C0A78002AFBD10F
S11312F0081A7047C9B201E0401C521E002A03D0EC
S113130003788B42F8D1704700207047124224D0F2
S1131310994228D970B500251B4202D00C00002147
S113132009E00024012649186441944200D3A41A18
S11313307641F8D33100012601E0764109D2001844
S113134064416D41A41A9D41F7D2A4185D41B619B8
S1131350F5D3300022002B0070BD1B42D8D108B554
S1131360C046C04608BD01D19042D3D202000B0052
S1131370002100207047F0B50E005E400125ED0706
S11313802E40B446AE0ADF184C18F44208D2F74295
S11313900ED2640D01D07F0D12D100206146F0BD44
S11313A005D1F74201D87F0D05D10020C143F0BD1E
S11313B0FBD1640DF9D00020C143490549088FE0F1
S11313C0E419C902DB0229432B43DB0A460DC002A0
S11313D031438E4630B487B295B27D432E0CADB204
S11313E0140C7C43A419260C240425439CB27C438E
S11313F0A419190C7943270CC919A4B20F043C434E
S1131400090C000C97B247432E0CBE193543ADB2FC
S1131410170C4743360CBF19A6B2BF193E04354317
S1131420240C3E0C36199FB24743BF19BCB23E0C84
S113143089191F0C47437F183E043443390C704606
S113144080B297B247432E0CBE193543ADB2170C88
S11314504743360CBF19A6B2BF193E043543240CCA
S11314603E0C36199FB24743BF19BCB23E0C8919D2
S11314701F0C47437F183E043443390C77463F0C16
S113148090B278432E0C80190604ADB22E43050C9D
S1131490A0B22D18120C7A435019020C80B2240CFD
S11314A0A4189AB27A43121914042043120C89180E
S11314B01B0C7B43C91830BCEF0A394203D1B6195F
S11314C040414941641E6F12BF0DE41B0BDBFF1941
S11314D0BC4211DA240500274208AE41784161413B
S11314E066463143F0BD641C05D1401C6141CF0206
S11314F001D34908F4E750E75DE70000124207D042
S11315008B0706D00B78491C0370401C521EF7D879
S11315107047830706D00B78491C0370401C521E89
S1131520F9D1704770B4103A03D378C9103A78C02F
S1131530FBD2530701D318C918C001D508C908C084
S1131540D20704D30B880380891C801C002A01D590
S11315500B78037070BC704730B4012464054D00EF
S1131560EC420BD85D00EC4208D80C001C4364002C
S11315700443144304D2994200D1904230BC7047D2
S1131580FCD08B42FAD18242F8E730B401246405DE
S11315904D00EC420BD85D00EC4208D80C001C4313
S11315A064000443144304D28B4200D1824230BC11
S11315B07047FCD09942FAD19042F8E7F4464A18B1
S11315C005D200F00FF801D580174008604700F0FD
S11315D009F80121C907884200D908004042604740
S11315E04A1812D2400DC90208430121C907084311
S11315F0520D40210901521A521C06D452421F3284
S113160001D4D0407047C0177047002070470000D5
S1131610010042221201D21E004207D002D4521EFF
S11316200018FCD5C10A400512058918704700004E
S11316300100EED54042F446FFF7EBFF0122D2074A
S1131640114360478B4200D1824205D98446100081
S113165062468C4619006346DF184C18640D7F0DF2
S11316603AD0661C760537D0E61B352E34DCDB0217
S11316702B43DB0A0C0DC9022943C912202E0DDBB2
S11316801700203E06D01F00F741F3405F400026BC
S1131690012A7741C01871410DD217E01700F741B4
S11316A0F2405740F3415A40B340F3405A400026B9
S11316B0801859410AD3A21C52050FD0C207012F2A
S11316C0724117004008CB0718434908641C2405DD
S11316D04208AF4170416141F0BC7047641C210570
S11316E00020F9E76B4010E06B40ABE7F742F3D121
S11316F0E943F1E72442EFD100200021ECE7F0B404
S11317000125ED070F005F40EED40C00871A9C41C1
S113171005D2C01BA141D219634169406B40AE0A96
S1131720DF184C18F442E1D2640D7F0DE2D0E61BC1
S1131730362ED1DCDB022B43DB0AA4460C0DC90296
S11317402943C90A012E28DC04D1D6075208DF0731
S11317503A435B08EF0A76429041994114D03942EA
S11317603BD1B61940414941761C394204D1761C1B
S1131770001849413942FAD0B9436746B74208D9FB
S1131780A41B24052143A7E70042EAD13642E8D14D
S1131790A2E7E40AE10700209EE7202E0BDD203EAD
S11317A01F00F340F7415F40012A002257417E4267
S11317B0984191410BE01700F741F2405740F34143
S11317C05A40B340F3405A407E42904199410A0343
S11317D003D2641EB619404149410027641E240502
S11317E04208AE4178416141F0BC7047F44600289C
S11317F004D4494200F013F84042604740420029B3
S113180005D45FD000F00BF840424942604749429A
S113181000F005F84942604703460B43E6D4002232
S1131820030A8B420BD203098B4219D243088B4221
S11318302ED2411A00D20146524110467047FF226F
S113184009023FD012068B4205D3121209028B42C1
S113185001D31212090203098B4219D300E0090AC9
S1131860C3098B4201D3CB01C01A524183098B4275
S113187001D38B01C01A524143098B4201D34B015E
S1131880C01A524103098B4201D30B01C01A5241C1
S1131890C3088B4201D3CB00C01A524183088B4248
S11318A001D38B00C01A524143088B4201D34B0031
S11318B0C01A5241884200D3401A5241CFD2014645
S11318C01046704708B5C046C04608BDF0B40E00C7
S11318D05E400125ED072E40B446AE0ADF184C18D1
S11318E0F4423BD2F74241D2640D43D07F0D38D04D
S11318F0E41BC902DB0229432B43CF0ADB0A06009F
S1131900B61A9F4104D2641EB6197F41B6185F41CE
S11319106812800D24180018844222DAE80C002191
S1131920B6197F41B61A9F4102D2B6185F413F1CD7
S113193040414941F4D3241C21DD2405B6197F41DB
S1131940B61A9F4105D33743C60737430026012FF4
S11319507041614166463143F0BC7047FCD1F742A7
S113196005D20020C14349054908F3E704D000200B
S1131970C143F1E77F0DFAD000206146ECE7244231
S1131980FAD1401C61410F03F6D30020E2E780B591
S1131990012000F001F801BD20210903263118209F
S11319A0ABBEF9E770B504000D00160030680128DD
S11319B002D0022805D00BE0200040B271688847AD
S11319C006E02000B1680870B068401CB060FFE712
S11319D02868401C286070BDFFB584B000210F004A
S11319E004980170461C0698002824D005980068C5
S11319F001900198002803D1302030707F1C3FE013
S1131A00019800283CD001980799FFF705FF03903F
S1131A1001980399079A5143401A002802D5C443F8
S1131A20313401E004003034039801902000307018
S1131A30761C7F1CE4E70598006800900098002855
S1131A4003D1302030707F1C1AE00098002817D092
S1131A5000980799FFF7E3FE029000980299079A0D
S1131A605143401A0A2802D20500303501E005002E
S1131A7037350298009028003070761C7F1CE4E70C
S1131A80380008B0F0BDF8B507000E0015003C00A2
S1131A90B44206DA009A29003020FFF783FF641C61
S1131AA0F6E7F1BDF8B507000E0015003C00B4429E
S1131AB006DA009A29002020FFF774FF641CF6E779
S1131AC0F1BDF3B595B0140000200090169D0020E0
S1131AD0285602900298002800D1E9E102982528AE
S1131AE013D002980A2805D0159A69460298FFF780
S1131AF059FF09E0159A69460D20FFF753FF159A1F
S1131B0069460A20FFF74EFFD0E1002007000020BD
S1131B10002825D16D1C00216956202910D02329C5
S1131B2016D02B2908D02D2902D030290CD013E04F
S1131B30390001270F43EBE7390002270F43E7E79A
S1131B40390004270F43E3E7390008270F43DFE791
S1131B50390010270F43DBE76D1E01210800D7E78A
S1131B6000210191002108910898002813D16D1CCF
S1131B7000202856029002983038092807D8019886
S1131B800A2148430299401830380190ECE76D1E51
S1131B9001200890E8E7681C002141562E290FD146
S1131BA000210891089900290BD1401C00214156BD
S1131BB03039092900D8F5E7401E01210891F1E7E1
S1131BC0401E401C002141564C2906D0682902D0F1
S1131BD06C2901D002E002E001E000E0401E451C57
S1131BE00020285602900298582872D0622800D10A
S1131BF0CCE0632800D118E1642813D0692811D0FF
S1131C006E2800D146E16F2800D1B4E0702800D1DD
S1131C10C7E0732800D112E1752800D1CCE0782800
S1131C2057D03EE12068241D09900A23012209A906
S1131C300CA8FFF7D1FE06000CA88019079009989C
S1131C40002803D52D200490761C0DE0B80703D599
S1131C502B200490761C07E0780703D520200490FD
S1131C60761C01E00020049000200590380712D56E
S1131C700498002804D0159A69460498FFF792FE48
S1131C8001200590159B6A4601993000FFF7FBFE81
S1131C900198060011E0F8070FD4159B6A460199D4
S1131CA03000FFF7FFFE0498002804D0159A694617
S1131CB00498FFF777FE012005900598002807D1C6
S1131CC00498002804D0159A69460498FFF76AFE20
S1131CD092E02068241D03901023002203A90CA87D
S1131CE0FFF77AFE06000CA88019079000200590E3
S1131CF0380716D5F8060BD5159A69463020FFF734
S1131D0051FE159A69467820FFF74CFE0120059094
S1131D10159B6A4601993000FFF7B5FE019806004D
S1131D2018E0F80716D4F80600D5B61C159B6A46C9
S1131D3001993000FFF7B6FEF8060BD5159A6946EF
S1131D403020FFF72FFE159A69467820FFF72AFE08
S1131D5001200590F8060DD5059800280AD1159A9A
S1131D6069463020FFF71EFE159A69467820FFF772
S1131D7019FEB61C40E02068241D039008230022AD
S1131D8003A90CA8FFF728FE06001FE02068241D05
S1131D9003900223002203A90CA8FFF71DFE0600EE
S1131DA014E02068241D03901023002203A90CA82A
S1131DB0FFF712FE060009E02068241D03900A23A1
S1131DC0002203A90CA8FFF707FE06000CA880193F
S1131DD00790380708D5159B6A4601993000FFF72C
S1131DE052FE0198060007E0F80705D4159B6A46E1
S1131DF001993000FFF756FE07980021405600284D
S1131E000AD0159A694607980023C056FFF7CAFD01
S1131E100798401E0790EFE7F80705D5159B6A461B
S1131E2001993000FFF73EFE40E02068241D40B2D7
S1131E300A90159A69460A98FFF7B4FD36E02068BF
S1131E40241D06900698002823D00698FFF74AFA26
S1131E500600F80705D4159B6A4601993000FFF780
S1131E6021FE06980021405600280AD0159A69469A
S1131E7006980023C056FFF795FD0698401C06906F
S1131E80EFE7F80705D5159B6A4601993000FFF77F
S1131E9009FE0BE02068241D0B9000980B99086044
S1131EA004E0159A69460298FFF77CFD6D1C0EE666
S1131EB0009817B0F0BD0EB43FB5050001200090A6
S1131EC00648019007AC220029006846FFF7F9FD97
S1131ED004B0029930BC04B0084700009B12000013
S1131EE010B504002000083000F0EEF8606800F03F
S1131EF07EF831480178FB220A40027000BF00BF1F
S1131F002E480178C906FBD401784906FCD52C4932
S1131F100A78D206D20E0A70017880220A4302702F
S1131F2010BD000010B504002000083000F0CCF80B
S1131F30606800F05CF820490878FB2202400A70CF
S1131F4080200A789206920E02430A701C490A788D
S1131F50EF2313400B7000BF00BF184A13789B088F
S1131F609B079B0F022BF8D11378DB06FCD40B786C
S1131F70DB06DB0E0B7011780843107010BD0000F7
S1131F8010B504002000083000F09EF8606800F0EE
S1131F902EF809480178FB220A40027000BF00BFF6
S1131FA007480178C906C90E0170044801788022E7
S1131FB00A43027010BD0000004006400440064081
S1131FC00140064010B50100604A117060490A786A
S1131FD0FE231340020092B212121400E407E40F2D
S1131FE01C430C70374909784906FBD510BD00B570
S1131FF00100202932D0FA221201914216D0FA228D
S1132000520191420AD0534A914207D0FA229201D6
S1132010914213D0504A914218D025E04F490A7892
S1132020C723134018221A430A701DE04B490A784B
S1132030C723134010221A430A7015E047490A784F
S1132040C723134020221A430A700DE043490A783B
S1132050C723134020221A430A7005E03F490A7837
S1132060C72313400B70FFE700BD10B504002078B0
S113207002280BD1207A102101432172207A2021D9
S1132080014321722000FFF72BFF1AE02078032878
S113209007D1207AEF21014021722000FFF770FF61
S11320A00FE02078052807D1207AEF210140217222
S11320B02000FFF737FF04E023480178C906C90E62
S11320C0017010BD0440064010B5002201210378C0
S11320D0DBB25B080B40DBB2002B02D01300022200
S11320E01A4303780B40DBB2002B02D01300042206
S11320F01A430378DBB2DB080B40DBB2002B02D0BF
S1132100130020221A430378DBB21B090B40DBB215
S1132110002B02D0130010221A430378DBB29B0871
S11321200B40DBB2002B02D0130080221A430C4B6D
S11321301A700478E4B264092140C9B2002902D0BB
S11321401978C907FCD510BD01400640024006407D
S11321500340064010270000204E000000400640C7
S113216000500640FEB582B006008F4801900198E9
S1132170000D0399FFF753FB05000024280080B2EB
S11321802041012801DB641CF8E72000C0B20028CC
S113219001D0864F07E001982100091DC84003992A
S11321A0FFF73DFB07000498390089B2491C4843F6
S11321B07F49FFF734FB69464880300040B200286D
S11321C003D0022827D012D33FE0022069460870CA
S11321D07848016820220A43026077480168774AF8
S11321E00A4002600168764A0A4002602DE002203B
S11321F0694608706F48016840220A4302606E48CD
S113220001688022D2000A43026001688022120120
S11322100A43026019E006206946087065480168AF
S113222080220A4302606748016801600168016016
S113223001680160016801600168604A0A40026047
S113224001685F4A0A400260FFE75F4D00203100E9
S113225049B20422514369580860310049B204224A
S1132260514369586B4608229A5608235A438918E1
S1132270C860684600786A460821515600B209B21F
S1132280884203DA6921514800F0A4F8300040B2D2
S11322900421484328586A460821515608225143CC
S11322A04018310049B20422514369586B46082250
S11322B09A5608235A438918C96828220A43C260D7
S11322C0300040B204214843285800682021884344
S11322D0310049B20422514369580860380080B281
S11322E0310049B20422514369588860300040B239
S11322F00421484328586A4608215156082251436C
S113230040186946498801610C20310049B2042211
S113231051436958086005B0F0BDFEB504000E00D5
S11323201500002001902A48854203D38E212748B6
S113233000F050F8200040B2002803D0022809D051
S113234004D30BE002206946087007E002206946C6
S1132350087003E0062069460870FFE768460078C5
S1132360310049B200B209B2884203DA9D2117480C
S113237000F030F8144F200040B20421484338588C
S1132380806801900198401C68430949FFF747FAA7
S1132390210049B2042251437958320052B2082331
S11323A05A4389180861F7BD005A6202FFFF000012
S11323B010270000148004400C800440FFFEFFFF3F
S11323C0FFFDFFFF1080044000F0FF1F002B000002
S11323D01127000070B506000D002A0031000748DF
S11323E0FFF769FD06490800002801D0401EFBE7FD
S11323F00C00002CF6D0641EFBE700BF042C000088
S1132400A086010080B588B003A8142100F0C6F8A6
S113241068460C2100F0C2F8002050490880504959
S113242008805820FFF7CEFD03988021490101431D
S1132430039106984B490143069103A800F0C8F89C
S11324406846017A01220A430272017A04220A438D
S11324500272FA2189010191022101706846FFF795
S113246004FEC046C04600F002F809B000BDFEB547
S11324700024FF2000F00FF90500002000F010F9FF
S113248069468871012000F00BF969464871022001
S113249000F006F969460871032000F001F907000D
S11324A03148FFF708FD3800C0B200906846037950
S11324B068464279684681792C48FFF7FCFC8226FD
S11324C030002840822804D1012004002848FFF766
S11324D0F2FC2E40022E04D1012004002548FFF70F
S11324E0EAFCA80604D5012004002348FFF7E3FC16
S11324F0680604D5012004002048FFF7DCFC6807C7
S113250004D5012004001E48FFF7D5FCA80404D517
S1132510012004001B48FFF7CEFC280504D5012048
S113252004001948FFF7C7FC680504D5012004001E
S11325301648FFF7C0FCA80504D501200400144880
S1132540FFF7B9FC2000C0B2012802D01148FFF700
S1132550B2FC1148FFF7AFFCF7BD00002CF0FF1FE1
S11325602EF0FF1F00307000202D0000B02A000064
S1132570B02D0000142E0000E82D0000202E0000D5
S1132580682D0000282C0000942C0000B42C0000BE
S1132590C42D00002C2E0000802D00000022FFE737
S11325A01300103906D330B41400150010393CC0A0
S11325B0FCD230BC490700D30CC000D504C089004C
S11325C002D30280801C002900D5027070470000ED
S11325D0F0B50E2400252900C022920103690126CA
S11325E007683F0B3740002F01D00225AC43056834
S11325F0ED0A3540002D01D00425AC430568AD0A31
S11326003540002D01D00825AC4305683540002D28
S113261003D02500802424032C430568AD083540ED
S1132620002D03D025008024E4012C430568ED0827
S11326303540002D03D02500802464012C43056817
S11326406D083540002D03D02500802424022C433E
S113265005686D0A2E40002E02D0250020242C434C
S113266045792E04E025ED023540254304792406FE
S11326702C430568AD092E05E025ED0335402543BF
S11326808468C6680F4F3D600F4F3C600F4F3E603B
S11326900F4F3B60F0BD01000E48006808407047D2
S11326A081B0010068460C4A136803600948006859
S11326B06A460B005BB2D25CD0400007000FC0B288
S11326C001B07047048004400C800440148004402E
S11326D02480044000800440442E000038B572B6C3
S11326E03024364D2878800603D5002000F08FF87A
S11326F004002878000604D52100C9B2002000F0A7
S11327006FF862B631BD000038B572B631242C4D75
S11327102878800603D5012000F079F80400287891
S1132720000604D52100C9B2012000F059F862B6B0
S113273031BD000038B572B63224224D28788006A7
S113274003D5022000F063F804002878000604D5BD
S11327502100C9B2022000F043F862B631BD80B551
S11327601948016801220A43026018480168491C9B
S1132770016002681649022000F06CF801BD80B5C2
S11327801448016804220A430260016820220A43B3
S113279002601D2000F074F8002803D10E490220C5
S11327A000F058F801BD0D48016804220A43026094
S11327B0016820220A4302607047000004A006401A
S11327C004B0064004C006400C71034024F0FF1F0F
S11327D0082E000008900740D82D000008A00740EC
S11327E010B51B4A03005BB204246343D3581B791E
S11327F01B06F6D503005BB204246343D3581B794C
S113280003005BB204246343D258D17110BD00B5F8
S113281001000F480A0052B204235A438258127925
S11328209206F6D50A0052B204235A438058C0795E
S1132830C0B200BD38B504000D002878002806D0C9
S11328402978200040B2FFF7CBFF6D1CF5E731BDBE
S113285018F0FF1F0CB470B5C0B006000D0044ACF6
S113286022002900684600F01DF86946300040B295
S1132870FFF7E0FF40B0039870BC03B000470000CE
S11328800749020052B2521104235A438958096974
S1132890C006C00EC1400800C007C00F704700004A
S11328A00CF0FF1F16B582B00400019400200090C4
S11328B003AB0A0001A9074878441830FDF7A8FDC6
S11328C00021019A1170002801D40198001B04B062
S11328D010BD00BFA7E9FFFF80B50023052200213A
S11328E00220FFF73FFC0023052201210220FFF70D
S11328F039FC0023052202210220FFF733FC0023C8
S1132900052203210220FFF72DFC01BD38B5050087
S11329100C002248854200DA050021498D4202DB81
S1132920962292011500844200DA04008C4202DBF4
S1132930962080010400012D0ADB2A0000210220D8
S1132940FFF7EBFC002201210220FFF7E6FC0BE07D
S1132950684205002A0001210220FFF7DEFC002264
S113296000210220FFF7D9FC012C0ADB22000221FE
S11329700220FFF7D2FC002203210220FFF7CDFC46
S11329800BE060420400220003210220FFF7C5FC93
S1132990002202210220FFF7C0FC31BD80DAFFFFD4
S11329A081250000FEB51E481E4981420BD000223D
S11329B01400302C07D20422624382580423634358
S11329C0CA50641CF5E700F03FF817491748184A45
S11329D00192019A151A2A00551E002A04D0027881
S11329E00A70401C491CF6E7124A134B0093009BE3
S11329F09B1A1C00631E002C03D000241470521C6C
S1132A00F7E70E4C0E4D0F4E771B3B005F1E002B5D
S1132A1004D02B7823706D1C641CF6E7F7BD00BF4F
S1132A200000000000F0FF1F00F0FF1F4C2C00000E
S1132A30702C000024F0FF1F30F0FF1F0000000086
S1132A400000000000000000014908607047000019
S1132A5008ED00E0F8B40F4806780F490A786B4691
S1132A601A700E4A13880E4C258877067F0E20268E
S1132A703E436F467E700B4E0B4F37800B4F3780B3
S1132A806E4636780E701380258069464978017049
S1132A90F1BC70470020054001200540042005409A
S1132AA00620054002200540C5200000D92800006A
S1132AB00A2046616D696C6C79204944203D2030C0
S1132AC07825782C205375622D66616D696C7920A8
S1132AD04944203D20307825782C2052657669734E
S1132AE0696F6E204944203D20307825782C205091
S1132AF0696E204944203D2030782578200A000062
S1132B00443A5CE8AFBBE4B9A6E4BABAE79A84E411
S1132B10BA8B5CE699BAE883BDE8BDA65C6B6561D7
S1132B20E6A8A1E69DBF372E385C7372635C6472BD
S1132B3069766572735C66746D5C66746D2E630091
S1132B4070B40123002413E00168001D194202D06F
S1132B504D466D1E49190C60091D121F042AFAD234
S1132B600D00960701D50C80AD1C1A4000D02C70C6
S1132B700268001D002AE7D170BC70470A2A2A2A7D
S1132B802A64656661756C745F69737220656E741E
S1132B9065726564206F6E20766563746F7220259C
S1132BA0642A2A2A2A2A0D0A0A00000030B40122C3
S1132BB00168001D00290FD00368C3184468083059
S1132BC0144202D04D466D1E64191D6825601B1DFC
S1132BD0241D091FECD0F8E730BC704710B5074935
S1132BE079441831064C7C44163404E0081D0A6804
S1132BF0891888470100A142F8D110BD7400000073
S1132C0094000000417373657274696F6E2066618D
S1132C10696C656420696E202573206174206C6979
S1132C206E652025640A00002053746F70204D6F78
S1132C3064652041636B6E6F776C656467652045DE
S1132C4072726F722052657365740A0000800340CB
S1132C500090034000A0034000F00F4040F00F40FC
S1132C6080F00F4000A0064000B0064000C00640BF
S1132C70D1FEFFFF0C00000024F0FF1F0000000045
S1132C802DFFFFFF24000000C4FFFFFF00F0FF1F23
S1132C9000000000204D444D2D41502053797374A1
S1132CA0656D205265736574205265717565737422
S1132CB00A00000020536F6674776172652F5359C0
S1132CC05352455345545245512052657365740A15
S1132CD0000000000120C046002801D0FFF77EFF5D
S1132CE000BF00BF002000BF00BF00F003F800F0E9
S1132CF00DF8000080B572B6FFF7EEFD0248010042
S1132D00FFF704FE62B6FEE78813000080B500F00A
S1132D1001F801BD07463846FEF73EFEFBE700001A
S1132D200A0A2D2D53797374656D204C6F67204208
S1132D304547494E532D2D0A0A000000002000216A
S1132D4000220023002400250026002762B600F09C
S1132D5001F8FEE780B5FFF77DFEFFF723FEFFF7DE
S1132D6051FBFFF7C7FFFEE7204C6F7373206F66BC
S1132D7020436C6F636B2052657365740A00000016
S1132D800A2D2D53797374656D204C6F6720454E61
S1132D9044532D2D0A0A000080B5034801680348F6
S1132DA0FFF789F801BD000004ED00E07C2B000072
S1132DB020506F776572204F6E2052657365740AD8
S1132DC00000000020436F7265206C6F636B7570A8
S1132DD02052657365740A005054443520696E743A
S1132DE06572727570740A002057444F472052650B
S1132DF07365740A000000006E616E004E414E005F
S1132E00696E6600494E460068656C6C6F202564E7
S1132E100A000000204C56442052657365740A0071
S1132E202050696E2052657365740A00535744201C
S1132E3052657365740A000000BF00BF00BF00BF85
S10B2E40FFF748FF1C181410F1
S9032E3995
